:020000040020DA
:1000000000000520C9B8200019B9200019B9200046
:1000100019B9200019B9200019B92000000000000A
:1000200000000000000000000000000019B92000DE
:1000300019B920000000000019B92000DBEF2000F2
:1000400019B9200019B9200019B9200019B92000E8
:1000500019B9200019B9200019B9200019B92000D8
:1000600019B9200019B9200019B9200019B92000C8
:10007000E9EF200019B9200019B9200019B92000B2
:1000800019B9200019B9200019B9200019B92000A8
:1000900019B92000F9EF200019B9200019B9200082
:1000A00019B9200019B9200019B9200019B9200088
:1000B00019B9200019B9200019B9200019B9200078
:1000C00019B9200019B9200019B9200019B9200068
:1000D00019B9200019B9200019B9200019B9200058
:1000E00019B9200019B9200019B9200019B9200048
:1000F00019B9200019B9200019B9200019B9200038
:1001000019B9200019B9200019B9200019B9200027
:1001100019B9200019B9200019B9200019B9200017
:1001200019B9200019B9200009F0200019B92000E0
:1001300019B9200019B9200019B9200019B92000F7
:1001400019B9200019B9200019B9200019B92000E7
:1001500019B9200019B9200019B9200019B92000D7
:1001600019B9200019B9200019B9200019B92000C7
:1001700019B9200019B9200019B9200000000000A9
:1001800019B9200019B9200019B9200019B92000A7
:1001900019B9200019B9200019B9200019B9200097
:1001A00019B9200019B9200019B9200019B9200087
:1001B00019B9200019B9200019B9200019B9200077
:0801C00019B9200019B9200053
:1001C80010B5054C237833B9044B13B10448AFF389
:1001D80000800123237010BD800000200000000073
:1001E800486B210008B5034B1BB103490348AFF323
:1001F800008008BD0000000084000020486B21003A
:1002080010F8012B11F8013B012A28BF9A42F7D0B8
:10021800D01A7047034613F8012B002AFBD1181A8D
:100228000138704781F0004102E000BF83F00043CD
:1002380030B54FEA41044FEA430594EA050F08BF79
:1002480090EA020F1FBF54EA000C55EA020C7FEA3D
:10025800645C7FEA655C00F0E2804FEA5454D4EBBA
:100268005555B8BF6D420CDD2C4480EA020281EA84
:10027800030382EA000083EA010180EA020281EABC
:100288000303362D88BF30BD11F0004F4FEA01310E
:100298004FF4801C4CEA113102D0404261EB41011D
:1002A80013F0004F4FEA03334CEA133302D05242A3
:1002B80063EB430394EA050F00F0A780A4F101045F
:1002C800D5F1200E0DDB02FA0EFC22FA05F2801899
:1002D80041F1000103FA0EF2801843FA05F359417F
:1002E8000EE0A5F120050EF1200E012A03FA0EFCFE
:1002F80028BF4CF0020C43FA05F3C01851EBE37128
:1003080001F0004507D54FF0000EDCF1000C7EEB44
:1003180000006EEB0101B1F5801F1BD3B1F5001F82
:100328000CD349085FEA30004FEA3C0C04F10104A1
:100338004FEA445212F5800F80F09A80BCF1004FCA
:1003480008BF5FEA500C50F1000041EB045141EA4C
:10035800050130BD5FEA4C0C404141EB010111F44D
:10036800801FA4F10104E9D191F0000F04BF0146F8
:100378000020B1FA81F308BF2033A3F10B03B3F1D6
:1003880020020CDA0C3208DD02F1140CC2F10C0266
:1003980001FA0CF021FA02F10CE002F11402D8BFC4
:1003A800C2F1200C01FA02F120FA0CFCDCBF41EA90
:1003B8000C019040E41AA2BF01EB0451294330BD5F
:1003C8006FEA04041F3C1CDA0C340EDC04F114043C
:1003D800C4F1200220FA04F001FA02F340EA030013
:1003E80021FA04F345EA030130BDC4F10C04C4F159
:1003F800200220FA02F001FA04F340EA0300294639
:1004080030BD21FA04F0294630BD94F0000F83F482
:10041800801306BF81F480110134013D4EE77FEA65
:10042800645C18BF7FEA655C29D094EA050F08BFB1
:1004380090EA020F05D054EA000C04BF1946104692
:1004480030BD91EA030F1EBF0021002030BD5FEAD6
:10045800545C05D14000494128BF41F0004130BDFE
:1004680014F580043CBF01F5801130BD01F0004552
:1004780045F0FE4141F470014FF0000030BD7FEAC5
:10048800645C1ABF194610467FEA655C1CBF0B46C0
:10049800024650EA013406BF52EA033591EA030FD7
:1004A80041F4002130BD00BF90F0000F04BF0021CF
:1004B800704730B54FF4806404F132044FF0000502
:1004C8004FF0000150E700BF90F0000F04BF00217B
:1004D800704730B54FF4806404F1320410F00045E1
:1004E80048BF40424FF000013EE700BF42004FEADC
:1004F800E2014FEA31014FEA02701FBF12F07F4359
:1005080093F07F4F81F06051704792F0000F14BF55
:1005180093F07F4F704730B54FF4607401F0004599
:1005280021F0004120E700BF50EA010208BF7047F0
:1005380030B54FF000050AE050EA010208BF7047E5
:1005480030B511F0004502D5404261EB41014FF44E
:10055800806404F132045FEA915C3FF4DCAE4FF052
:1005680003025FEADC0C18BF03325FEADC0C18BF39
:10057800033202EBDC02C2F1200300FA03FC20FA8A
:1005880002F001FA03FE40EA0E0021FA02F11444D7
:10059800C1E600BF70B54FF0FF0C4CF4E06C1CEAEC
:1005A80011541DBF1CEA135594EA0C0F95EA0C0F61
:1005B80000F0DEF82C4481EA030621EA4C5123EAD4
:1005C8004C5350EA013518BF52EA033541F4801103
:1005D80043F4801338D0A0FB02CE4FF00005E1FBB6
:1005E80002E506F00042E0FB03E54FF00006E1FB00
:1005F80003569CF0000F18BF4EF0010EA4F1FF0443
:10060800B6F5007F64F5407404D25FEA4E0E6D4182
:1006180046EB060642EAC62141EA55514FEAC52093
:1006280040EA5E504FEACE2EB4F1FD0C88BFBCF50F
:10063800E06F1ED8BEF1004F08BF5FEA500E50F1C0
:10064800000041EB045170BD06F0004646EA010186
:1006580040EA020081EA0301B4EB5C04C2BFD4EBB8
:100668000C0541EA045170BD41F480114FF0000EB1
:10067800013C00F3AB8014F1360FDEBF002001F01F
:10068800004170BDC4F10004203C35DA0C341BDC99
:1006980004F11404C4F1200500FA05F320FA04F06B
:1006A80001FA05F240EA020001F0004221F000419F
:1006B80010EBD37021FA04F642EB06015EEA430E12
:1006C80008BF20EAD37070BDC4F10C04C4F1200542
:1006D80000FA04F320FA05F001FA04F240EA0200F5
:1006E80001F0004110EBD37041F100015EEA430EC6
:1006F80008BF20EAD37070BDC4F1200500FA05F2E6
:100708004EEA020E20FA04F301FA05F243EA020364
:1007180021FA04F001F0004121FA04F220EA020073
:1007280000EBD3705EEA430E08BF20EAD37070BDB9
:1007380094F0000F0FD101F00046400041EB010199
:1007480011F4801F08BF013CF7D041EA060195F07B
:10075800000F18BF704703F00046520043EB030335
:1007680013F4801F08BF013DF7D043EA0603704722
:1007780094EA0C0F0CEA135518BF95EA0C0F0CD02D
:1007880050EA410618BF52EA4306D1D181EA030173
:1007980001F000414FF0000070BD50EA410606BF6D
:1007A8001046194652EA430619D094EA0C0F02D1B2
:1007B80050EA013613D195EA0C0F05D152EA0336F7
:1007C8001CBF104619460AD181EA030101F0004115
:1007D80041F0FE4141F470014FF0000070BD41F05E
:1007E800FE4141F4780170BD70B54FF0FF0C4CF438
:1007F800E06C1CEA11541DBF1CEA135594EA0C0F57
:1008080095EA0C0F00F0A7F8A4EB050481EA030EA3
:1008180052EA03354FEA013100F088804FEA03338A
:100828004FF0805545EA131343EA12634FEA022258
:1008380045EA111545EA10654FEA00260EF0004119
:100848009D4208BF964244F1FD0404F5407402D26B
:100858005B084FEA3202B61A65EB03055B084FEAFC
:1008680032024FF480104FF4002CB6EB020E75EBF9
:10087800030E22BFB61A754640EA0C005B084FEA21
:100888003202B6EB020E75EB030E22BFB61A75469E
:1008980040EA5C005B084FEA3202B6EB020E75EBE9
:1008A800030E22BFB61A754640EA9C005B084FEA61
:1008B8003202B6EB020E75EB030E22BFB61A75466E
:1008C80040EADC0055EA060E18D04FEA051545EA5D
:1008D80016754FEA06164FEAC30343EA52734FEA06
:1008E800C2025FEA1C1CC0D111F4801F0BD141EA7F
:1008F80000014FF000004FF0004CB6E711F4801FE4
:1009080004BF01430020B4F1FD0C88BFBCF5E06FC3
:100918003FF6AFAEB5EB030C04BFB6EB020C5FEAD3
:10092800500C50F1000041EB045170BD0EF0004E28
:100938004EEA113114EB5C04C2BFD4EB0C0541EA5A
:10094800045170BD41F480114FF0000E013C90E657
:1009580045EA060E8DE60CEA135594EA0C0F08BF1B
:1009680095EA0C0F3FF43BAF94EA0C0F0AD150EA1A
:1009780001347FF434AF95EA0C0F7FF425AF1046AD
:1009880019462CE795EA0C0F06D152EA03353FF4D5
:10099800FDAE1046194622E750EA410618BF52EA52
:1009A80043067FF4C5AE50EA41047FF40DAF52EA26
:1009B80043057FF4EBAE12E74FF0FF3C06E000BFC3
:1009C8004FF0010C02E000BF4FF0010C4DF804CDD0
:1009D8004FEA410C7FEA6C5C4FEA430C18BF7FEA90
:1009E8006C5C1BD001B050EA410C0CBF52EA430CBE
:1009F80091EA030F02BF90EA020F0020704710F13E
:100A0800000F91EA030F58BF994208BF90422CBFCC
:100A1800D8176FEAE37040F0010070474FEA410CC5
:100A28007FEA6C5C02D150EA013C07D14FEA430CE3
:100A38007FEA6C5CD6D152EA033CD3D05DF8040B54
:100A4800704700BF8446104662468C461946634686
:100A580000E000BF01B5FFF7B7FF002848BF10F15D
:100A6800000F01BD4DF808EDFFF7F4FF0CBF0120A2
:100A780000205DF808FB00BF4DF808EDFFF7EAFF1E
:100A880034BF012000205DF808FB00BF4DF808EDD9
:100A9800FFF7E0FF94BF012000205DF808FB00BFCE
:100AA8004DF808EDFFF7CEFF94BF012000205DF858
:100AB80008FB00BF4DF808EDFFF7C4FF34BF012065
:100AC80000205DF808FB00BF4FEA4102B2F1E043A5
:100AD80024BFB3F5001CDCF1FE5C0DD901F0004C1D
:100AE8004FEAC0024CEA5070B2F1004F40EB83006D
:100AF80008BF20F00100704711F0804F21D113F199
:100B08003872BCBF01F00040704741F480114FEAD1
:100B18005252C2F11802C2F1200C10FA0CF320FA5A
:100B280002F018BF40F001004FEAC1234FEAD32377
:100B380003FA0CFC40EA0C0023FA02F34FEA4303E1
:100B4800CCE77FEA625307D150EA01331EBF4FF06A
:100B5800FE4040F44000704701F0004040F0FE4085
:100B680040F40000704700BF53B94AB9002908BFD4
:100B780000281CBF4FF0FF314FF0FF3001F0F6B8EE
:100B8800ADF1080C6DE904CE00F006F8DDF804E0DC
:100B9800DDE9022304B070472DE9F0478C460D4685
:100BA8000446089E002B51D18A4217466DD9B2FAE5
:100BB80082FEBEF1000F0BD0CEF1200C01FA0EF52B
:100BC80020FA0CFC02FA0EF74CEA050C00FA0EF4B7
:100BD8004FEA174A250CBCFBFAF81FFA87F90AFBFB
:100BE80018CC45EA0C4508FB09F3AB420AD9ED19C4
:100BF80008F1FF3280F02381AB4240F22081A8F156
:100C080002083D44ED1AA4B2B5FBFAF00AFB1055F0
:100C180044EA054400FB09F9A14509D9E41900F1A2
:100C2800FF3380F00A81A14540F2078102383C4435
:100C3800A4EB090440EA08400021002E61D024FA00
:100C48000EF4002334607360BDE8F0878B4207D947
:100C5800002E54D0002186E821000846BDE8F08720
:100C6800B3FA83F1002940F08E80AB4202D382426E
:100C780000F2FA80841A65EB03050120AC46002EC9
:100C88003FD086E81010BDE8F08712B90127B7FBFE
:100C9800F2F7B7FA87FEBEF1000F34D1EB1B3A0C1E
:100CA8001FFA87FC0121B3FBF2F8250C02FB18336D
:100CB80045EA03450CFB08F3AB4207D9ED1908F1E7
:100CC800FF3002D2AB4200F2D1808046ED1AA3B2C7
:100CD800B5FBF2F002FB105543EA05440CFB00FC9F
:100CE800A44507D9E41900F1FF3302D2A44500F264
:100CF800B8801846A4EB0C0440EA08409DE731464A
:100D08003046BDE8F087CEF1200405FA0EF307FA65
:100D18000EF720FA04F83A0C25FA04F448EA030816
:100D2800B4FBF2F14FEA184502FB11441FFA87FCA5
:100D380045EA044501FB0CF3AB4200FA0EF409D96D
:100D4800ED1901F1FF3080F08A80AB4240F28780D4
:100D580002393D44EB1A1FFA88F5B3FBF2F002FBA7
:100D6800103345EA034500FB0CF3AB4207D9ED19F4
:100D780000F1FF386FD2AB426DD902383D44EB1A0F
:100D880040EA01418FE7C1F1200722FA07F88B40BA
:100D980005FA01F448EA030320FA07FE4FEA134C68
:100DA800FD404EEA040EB5FBFCF94FEA1E440CFB6D
:100DB80019551FFA83F844EA054509FB08F4AC42C3
:100DC80002FA01F200FA01FA08D9ED1809F1FF3028
:100DD80043D2AC4241D9A9F102091D442D1B1FFA87
:100DE8008EFEB5FBFCF00CFB10554EEA054400FBEB
:100DF80008F8A04507D9E41800F1FF3529D2A04525
:100E080027D902381C4440EA0940A4EB0804A0FB97
:100E180002894C45C6464D4615D312D056B1BAEB99
:100E28000E0364EB050404FA07F7CB401F43CC40DC
:100E3800376074600021BDE8F0871846F8E69046F0
:100E4800E0E6C245EAD2B8EB020E69EB03050138C9
:100E5800E4E72846D7E7404691E78146BEE70146E2
:100E680078E702383C4445E7084608E7A8F1020855
:100E78003D442BE703685A004CBF43F0004323F07E
:100E880000431844704700BF61B32DE9F84F01F1E2
:100E9800FF3A90460646D146002707EB090404EBC3
:100EA800D4746410E50071190846FFF7E3FFA24502
:100EB800834605F10800304409D0FFF7DBFFC3453E
:100EC80000F1FF3005D8404509D2671CE5E7C34566
:100ED80005D9A74202D004F1FF39DEE70021084610
:100EE800BDE8F88F08467047012807D0022807D0C8
:100EF800044B00280CBF1846002070470248704772
:100F080002487047F5152000F9152000FD1520004E
:100F180030B5244B83B004468D1E7BB301A9284607
:100F2800AFF3008020B301992A46FFF7ADFF0146D1
:100F3800F0B1FFF79FFF4B68A064012B12D0002B84
:100F480001F1040020DBFFF795FF0023E06423652F
:100F58000368002B1CDBFFF78DFF00232061184678
:100F680003B030BD002323610523184603B030BD0C
:100F7800002323610923184603B030BD0A490B48F2
:100F8800091AC9100191CFE70123E0642365DFE75F
:100F9800C3F30360FFF7A8FF0028206114BF0023F4
:100FA8000923DCE70000000018972100288F2100A2
:100FB8000368DA0710B5044606D49B0700F1480019
:100FC80009D500F051FC2368590709D51A070ED531
:100FD800DB0613D510BD00F03FFC23685907F5D494
:100FE80004F1D00000F048FC23681A07F0D404F597
:100FF800A87000F049FC2368DB06EBD404F5E87020
:10100800BDE8104000F084BC036803B103441846EF
:10101800704700BF09207047704700BF70B504468D
:101028000D4608E02B6C63612A462369214601209E
:101038009847082808D1296C2046FFF769FF06461B
:101048000028EFD015F09EFB0728FBD13046296C0D
:10105800FFF7E2FF281D00F0F3FB00BF2DE9F04782
:101068000C1D054692460FCCADF5727D03AE0FC63A
:101078000FCC0FC60FCC0FC694E80F0002ACD5F802
:101088000C80D5F8189086E80F0000232846216CBC
:101098002360FFF73DFFBAF1000F074614BF0A2689
:1010A80009267FB1A36B46F010018DE810022A468D
:1010B800636401202B46C04778BB38460DF5727D26
:1010C800BDE8F087236C6B614FF4F07221467AA873
:1010D80015F0B7FB2B697AAA294630469847889BB2
:1010E80082468DE81002314663642A462B46012069
:1010F800C04790B94FF4F0727AA9204615F0A1FBC9
:10110800BAF1080F06D1216C2846FFF701FF09261E
:101118000746C6E7BAF1070F05D0092738460DF587
:10112800727DBDE8F0873846216CFFF775FF03A88C
:1011380000F086FB406C7047F0B5CB6B0B640E1D5E
:101148000F4604460FCEF9B001AD0FC50FCE0FC53F
:101158000FCE0FC596E80F004FF0FF3685E80F0059
:10116800009606E023696A462146984708280546FE
:1011780008D110992046FFF7CBFE0028F2D00920AD
:1011880079B0F0BD6846FFF713FF062DF7D1394651
:101198002046FFF743FF00BF30B4DD6BC1608261BA
:1011A80019461D64002230BC58E700BF70B5C668F8
:1011B80043690B6426B10122FFF750FF15F0E2FAEC
:1011C80003690A4604460D46014602209847072847
:1011D80007D0082803D129462046FFF71FFF15F03E
:1011E800D1FA3046296CFFF717FF281D00F028FBBD
:1011F800C2681AB1CA6B0A6400222FE79CE700BFD5
:10120800704700BF836813B1014601201847704733
:1012180000B5042907D8DFE801F003090609090029
:101228000BB90F2A05D902205DF804FB01205DF8EF
:1012380004FB00EB820218465368019A13605DF8BC
:1012480004FB00BF10B584B0002303AC0A46009429
:101258001946FFF7DDFF039804B010BD00B5042957
:1012680007D8DFE801F00309060909000BB90F2ABE
:1012780005D902205DF804FB01205DF804FB019903
:1012880000EB82020968516018465DF804FB00BF54
:1012980010B584B004AC002344F8042D0A46009429
:1012A8001946FFF7DBFF04B010BD00BFF0B5D36BE4
:1012B8001364151D07460E460FCDADF50F7D17AC0F
:1012C8000FC40FCD0FC40FCD0FC495E80F004FF01A
:1012D800FF3584E80F00169510E016A8FFF7D8FF31
:1012E800314616A8B84716AA694678B9049B08205B
:1012F8009847052804460AD0092807D02699684641
:10130800FFF706FE6A460C210028E6D0092416A835
:10131800FFF74EFE20460DF50F7DF0BD2DE9F04F8D
:101328000D46C96C8BB00C1D09680791914608944D
:1013380000F0030B1E46002B60D10902032307911E
:101348008DF825608DF824302B6DBBF1020F08BF96
:10135800AC6B13F0010340D1019300F00803039331
:10136800D4F80080B8F1000F39D0022E43D0B4F879
:10137800008067880434AB6C27F0010A0F214846C7
:101388009A44FFF75FFF824533D828F001039A4457
:1013980050452CBF002001207F0007F0020708F00D
:1013A800010847EA0807012F3ED035D3022F1CD188
:1013B800236823F000420292BBF1000F76D128B1D6
:1013C800039900297ED0002A00F0A680002B77DB45
:1013D800029B013304EB8304C2E700230193022E2E
:1013E8003EDDFFF717FE002840D009200BB0BDE80E
:1013F800F08F0020D0E767680834BCE7022BA3DC35
:101408000B0CDAB209048DF82530022304EB8204B0
:1014180007918DF8243097E7BBF1000F02D0002820
:1014280040F0BD8004349BE7BBF1000F25D1A8B183
:1014380094E80C00991C4FEAD272D6D005F15801F5
:101448000133069100F0A380201DFFF7DDFD06ABF8
:101458000146284613F0A8F8002877D108347FE71A
:1014680007A9484600F0EEFA0028BED1019B002BE0
:101478005CD108200BB0BDE8F08F0D2148462F6ADB
:10148800FFF7E0FE8742E9D1AB6A9C42E6D12046ED
:10149800FFF7F0FC0F2102464846FFF7F9FE4846E1
:1014A8002A460021FFF7F4FE07209FE70D21484652
:1014B8002F6AFFF7C7FE874258D02368002B87DAC8
:1014C800043485E7029B3BB305F15803271DCDF88B
:1014D80010B0DDF80C80DDF808A00596A3461C4680
:1014E80002E0B245B04616D038460694FFF78CFDA8
:1014F80006AB01460022284613F056F808F101060B
:1015080004370028EDD0029B059E43455C46DDF874
:1015180010B0D2D100E05C4648460D21FFF792FE9C
:10152800069B2862AC626B6206205FE70F21484683
:10153800FFF788FE0E2102464846FFF7A9FE4846F7
:10154800294A0F21FFF7A4FE07204FE707460D2180
:101558004846FFF777FE022F28621DD12B46069AD0
:1015680043F82C2F6B62AC6206203FE7AB6A9C42C3
:10157800A3D104220027A3180299A962EF622A6363
:101588006B632368BB421DDB0123019320E74846B8
:101598000D21FFF757FE2862069B6B62E3E72046A2
:1015A800FFF768FC04340646AC63284613F05AF883
:1015B80000283FF41AAF484632460F21FFF768FE6D
:1015C800072013E70846013004EB8000FFF752FCC0
:1015D8000F2102464846FFF75BFE48462A46394631
:1015E800FFF756FE072001E7194F2100002395E673
:1015F800012393E6022391E6F0B50446C5B0042919
:101608000DD8DFE801F053030C310F00012B4FEA2E
:10161800124695B262D17219102A40F29B800220BC
:1016280045B0F0BD002BFAD1102AF8D82368D806A7
:1016380000F1C68022AE3046019200F073F9A06B2B
:10164800019A0023012505FA03F1114203D001682C
:1016580046F8231004300133042BF4D1A06330463C
:1016680000F056F90020DBE7032BD8D1150C97B210
:10167800EB19102BD3D823681E0700F1B58022AED2
:10168800304600F023F9ED00A36B4FB1043D71190A
:1016980003EBC70053F8042B41F8042F8342F9D118
:1016A8003046A36300F0F0F80020B9E7002BB6D16C
:1016B800A56B97B2201D012606FA03F1394203F102
:1016C800010302D0296801600435102B00F10400E1
:1016D800F2D112F400503BD1A563A1E7052B9ED1AE
:1016E8007719202F9BD80F2E66D92F46002D3AD177
:1016F8002A460027002AA06B72DD00EBC2020146D1
:1017080044A800EBC6008C3851F8045B40F8045F2D
:101718009142F9D1084697B1102E324644A938BFF4
:10172800102201EBC202A2F5C4727900043A00EB60
:10173800810150F8045B42F8045F8842F9D1012B1B
:1017480048D00F2EA16333D917B102A800F094F83E
:10175800002065E70F2E3FF662AF00272268D10709
:1017680017D4002F60D02268510745D4012B4DD0E3
:101778000F2E06D822A8019300F07AF8019B002FBB
:10178800B6D002A8019300F07BF8019BC6F11002C5
:10179800B0E722F00101052B2160019320463BD0E0
:1017A80022F0030240F8482B00F05AF8019BD8E7D2
:1017B80022A800F059F8C7E7102FCED9103FCDE77F
:1017C80023F01003236004F5E870019200F0AAF8F2
:1017D800019A2FE70431A16322A800F03DF8B7E78A
:1017E800002F99D10146AAE723F00803236004F5E6
:1017F800A87000F06BF842E7204622F0040240F897
:10180800D02B019300F03CF8019BAFE722A801938D
:1018180000F026F8019BB9E741F0020140F8481BA7
:1018280000F026F8019B9CE7012B03D00F2E3FF612
:101838005FAF9FE722A8019300F012F8019B57E7DA
:1018480000F1340191E838009C46A6464CF8045D46
:1018580090E8FF0FE54600BD90EC210B704700BFF4
:1018680080EC210B704700BF90EC200B704700BF45
:1018780080EC200B704700BFD0EC200B704700BFF6
:10188800C0EC200B704700BFF0EC0201F0EC021135
:10189800F0EC0221F0EC0231F0EC0241F0EC0251E4
:1018A800F0EC0261F0EC0271F0EC0281F0EC0291D4
:1018B800F0EC02A1F0EC02B1F0EC02C1F0EC02D1C4
:1018C800F0EC02E1F0EC02F1704700BFE0EC02013D
:1018D800E0EC0211E0EC0221E0EC0231E0EC024124
:1018E800E0EC0251E0EC0261E0EC0271E0EC028114
:1018F800E0EC0291E0EC02A1E0EC02B1E0EC02C104
:10190800E0EC02D1E0EC02E1E0EC02F1704700BF4C
:10191800B0FC0181B0FC0191B0FC01A1B0FC01B1A7
:10192800704700BFA0FC0181A0FC0191A0FC01A1AF
:10193800A0FC01B1704700BFEC4600B52DE900508E
:101948002DE9FF1F4FF000032DE90C0001A9FFF757
:10195800F3FBDDF840E012B0704700BFEC4600B57D
:101968002DE900502DE9FF1F4FF000032DE90C0071
:1019780001A9FFF71BFCDDF840E012B0704700BF7B
:10198800EC4600B52DE900502DE9FF1F4FF000038C
:101998002DE90C0001A9FFF72BFCDDF840E012B09F
:1019A800704700BFEC4600B52DE900502DE9FF1F38
:1019B8004FF000032DE90C0001ABFFF7EDFBDDF85C
:1019C80040E012B0704700BFEC4600B52DE900506A
:1019D8002DE9FF1F4FF000032DE90C0001AAFFF7C6
:1019E80065FCDDF840E012B0704700BF027A1AB912
:1019F800437A43B9B02070470368013A02721A0269
:101A08000260180E70474268013B10B443721368B5
:101A18000321141D01721A02446002605DF8044B30
:101A2800180E704700B585B003AA00230092194626
:101A38000C22FFF7EDFB039805B05DF804FB00BF2F
:101A4800F0E700BF2DE9F043064685B00F464FF09A
:101A580000083846FFF7CAFFB028044623D0050619
:101A680027D400230DF10C09194685000D22CDF865
:101A780000903046FFF7CCFBEDB2039BCDF8009009
:101A8800600605F104054CBF5D1BED1800231946DF
:101A98000D2230460395FFF7E1FB3846FFF7A6FF16
:101AA800B0280446DBD1B8F1000F00F09580002083
:101AB8001CE000F0F003802B5DD0902B19D0A02BF8
:101AC8002CD0B02B3FD0C02B6CD000F0F803D02B1B
:101AD8000BD100F00702013242F400220523012154
:101AE8003046FFF789FD0028B3D0092005B0BDE8CE
:101AF800F08300F00D030D2BF7D003AD002300F0A9
:101B08000F02194600953046FFF782FB0023009527
:101B180019460D223046FFF7A1FB9AE7C24302F0AF
:101B280007034FF47F621A41010702F47F624FF006
:101B3800000348BF42F4804219463046FFF75CFD77
:101B48000028D2D185E7B12857D0B22868D0B32869
:101B580000F0958000F0FC03B42BC6D000F007021B
:101B68000132012342F4002219463046FFF744FDB2
:101B78000028BAD16DE73846FFF738FF240204433E
:101B8800B4F5004FB1D024010023A2B21946304663
:101B9800FFF732FD0028A8D114F4004F18BF4FF00A
:101BA800010856E7C6287DD0C72800F0868000F0D7
:101BB800F803C02B00F09480C82800F09F80C92843
:101BC80093D13846FFF712FF020300F00F0002F42A
:101BD80070220130024381E703AC43460E2241469E
:101BE80000943046FFF714FB0094304643460F221A
:101BF8004146FFF733FB404678E73846FFF7F6FEE5
:101C080000283FF472AF10F0F0037FF46EAF024685
:101C180019463046FFF7F0FC00287FF466AF18E756
:101C280000230DF10C090D221946CDF8009030461D
:101C3800FFF7EEFA3846FFF7D9FE02064FF0020426
:101C48000CD5039B00F07F00A04003443846039363
:101C5800FFF7CCFE030604F10704F2D4039BCDF88A
:101C6800009000F07F02A24003F5017400231444A1
:101C780019460D2230460394FFF7F0FAE9E6384694
:101C8800FFF7B4FE010300F00F0001F47021421CBD
:101C980001230A4330461946FFF7AEFC00287FF4BB
:101CA80024AFD6E63846FFF7A1FE010300F00F0087
:101CB80001F47021421C0323EBE73846FFF796FE38
:101CC80000283FF412AF10F0F0037FF40EAF024685
:101CD80004213046FFF790FC00287FF406AFB8E6F1
:101CE80000F00F020132032342F420221946304645
:101CF800FFF782FC00287FF4F8AEAAE63846FFF723
:101D080075FE00F0F00200F00F031032013343EAD1
:101D18000232E3E610B5C36C84B05A6803208DF82C
:101D28000C00DC798DF80D4012020833084601A931
:101D380001920293FFF786FE04B010BD08B5FFF7C5
:101D48007FFE806C08BD00BF08B5FFF779FEC06C48
:101D5800C37900EB8300083008BD00BF08B514F054
:101D680011FD00BF08B5FFF7F9FF00BF704700BFBE
:101D7800B0F90E315B4207EE903AF8EEE77ADFED04
:101D88002F6A67EEA67AC0ED3A7AB0F90C3107EE01
:101D9800103AB8EEC77A27EE267A80ED3B7AB0F98A
:101DA800103107EE903AF8EEE77A67EEA67AC0EDC2
:101DB8003C7AB0F914315B4207EE903AF8EEE77AD4
:101DC800DFED1F6A67EEA67AC0ED3D7AB0F91231F1
:101DD80007EE103AB8EEC77A27EE267A80ED3E7AFB
:101DE800B0F9163107EE903AF8EEE77A67EEA67A80
:101DF800C0ED3F7AB0F918315B4207EE103AB8EE01
:101E0800C77ADFED106A27EE267A80ED407AB0F9BE
:101E18001A3107EE103AB8EEC77A27EE267A80ED27
:101E2800417AB0F91C315B4207EE903AF8EEE77A56
:101E380067EEA67AC0ED427A704700BF70A18B3A70
:101E48000AE81C3B9989193EA0F10800FFF790BFEA
:101E58007047009B012A0AD012B1022A0ED070479F
:101E68001A68C0F80C219B88A0F8103170471A68CE
:101E7800C0F812219B88A0F8163170471A68C0F87C
:101E880018219B88A0F81C317047704770B584B042
:101E98000B691A780979062917D8DFE801F00418C0
:101EA8002B49718AA0001B7900218DF808108DF844
:101EB8000930007902AB00930223194604F07EFF33
:101EC80004F076FF01210EF0A5F804B070BD1B796F
:101ED80001248DF808408DF80930007902AB009391
:101EE8000223194604F06AFF04F062FF21460EF04F
:101EF80091F8EAE71C799B6802218DF808108DF8A3
:101F080009408DF80A301C128DF80B401C148DF80E
:101F18000C401B0E8DF80D30007902AB00930623A0
:101F280004F04CFF04F044FF01210EF073F8CCE7F5
:101F38001D799C68D9681B6903268DF808608DF89F
:101F480009508DF80A4044F307248DF80B408DF8AA
:101F58000C1041F307218DF80D108DF80E3043F366
:101F680007238DF80F30007902AB00930823022174
:101F780004F024FF04F01CFF01210EF04BF8A4E745
:101F88001C79996804238DF808308DF809408DF87C
:101F98000A1041F307218DF80B10007902A900916E
:101FA800022104F00BFF04F003FF01210EF032F8C8
:101FB8008BE719791B7A05248DF808408DF80910EC
:101FC8008DF80A30007902AB00930323022104F054
:101FD800F5FE04F0EDFE01210EF01CF875E7197905
:101FE8009B6806248DF808408DF809108DF80A3092
:101FF80043F307238DF80B30007902AB00930423D9
:10200800022104F0DBFE04F0D3FE01210EF002F8F9
:102018005BE700002DE9F04F85B0436802689B1A22
:102028009A110F4B03FB02F30E4A93420BD08046E2
:102038000C46DBB15A00934202D80A4B9A4205D9A2
:10204800084B029314E0084812F015FF002A00F02C
:1020580033829A4201D802920AE012F006FF00BFCA
:10206800CDCCCCCCCCCCCC00446D21000123029348
:10207800029B03EB8300800112F023F80190D8F84B
:102088000420D8F80030D21A0198831800F0E580AF
:1020980021788154227A1A72627A5A72794A5A607D
:1020A80062895A81227C1A74627C5A74227E1A765A
:1020B80003F11C0504F11C0207CA85E8070003F1B7
:1020C800280504F1280207CA85E8070003F134054A
:1020D80004F1340207CA85E8070003F1400504F15A
:1020E800400207CA85E8070003F14C0504F14C02D9
:1020F80007CA85E8070003F1580504F1580207CA22
:1021080085E8070094F8642083F86420A26E9A6634
:10211800E26EDA66226F1A6703F1740504F174023D
:1021280007CA85E8070003F1800504F1800207CAA1
:1021380085E8070003F18C0504F18C0207CA85E8DD
:102148000700B4F89820A3F8982003F19C0504F13F
:102158009C0207CA85E8070003F1A80504F1A80254
:1021680007CA85E8070003F1B40504F1B40207CAF9
:1021780085E8070003F1C00504F1C00207CA85E835
:10218800070003F1CC0504F1CC0207CA85E8070073
:1021980003F1D80504F1D80207CA85E8070003F15E
:1021A800E40504F1E40207CA85E8070094F8F02082
:1021B80083F8F02003F1F40504F1F40207CA85E876
:1021C800070003F5807504F5807207CA85E80700E3
:1021D80003F5867504F5867207CA85E807002A4A5A
:1021E800DA6014325A6104F58C7292E80300C3F87D
:1021F8001801A3F81C11D4F81E11C3F81E11B4F865
:102208002221A3F8222104F5927292E80300C3F870
:102218002401A3F8281194F82A2183F82A2194F894
:10222800302183F8302194F8312183F83121174A7D
:10223800C3F82C21D4F83421C3F834210022C4F87F
:102248003421D4F83811C3F83811C4F83821D4F837
:102258003C11C3F83C11C4F83C21D8F800301C46A6
:102268000393D8F804E0734500F03781019B084FC9
:10227800DFF810B0DFF81CA0DFF80CC00CF114096F
:10228800002609E01C6C2100906B2100546C210091
:10229800306D2100406D2100002B00F0F480227881
:1022A8001A705F60227A1A72627A5A72C3F804B09E
:1022B80062895A81DF60227C1A74627C5A74C3F87E
:1022C80014A0227E1A7603F11C0504F11C0207CA29
:1022D80085E8070003F1280504F1280207CA85E804
:1022E800070003F1340504F1340207CA85E8070042
:1022F80003F1400504F1400207CA85E8070003F12D
:102308004C0504F14C0207CA85E8070003F158059B
:1023180004F1580207CA85E8070094F8642083F896
:102328006420A26E9A66E26EDA66226F1A6703F17B
:10233800740504F1740207CA85E8070003F18005F3
:1023480004F1800207CA85E8070003F18C0504F14F
:102358008C0207CA85E80700B4F89820A3F89820EB
:1023680003F19C0504F19C0207CA85E8070003F104
:10237800A80504F1A80207CA85E8070003F1B40517
:1023880004F1B40207CA85E8070003F1C00504F1A7
:10239800C00207CA85E8070003F1CC0504F1CC02A6
:1023A80007CA85E8070003F1D80504F1D80207CA6F
:1023B80085E8070003F1E40504F1E40207CA85E8AB
:1023C800070094F8F02083F8F02003F1F40504F1F5
:1023D800F40207CA85E8070003F5807504F58072E2
:1023E80007CA85E8070003F5867504F5867207CAEB
:1023F80085E80700C3F80CC0C3F81490D4F8181186
:10240800C3F81811B4F81C21A3F81C21D4F81E1124
:10241800C3F81E11B4F82221A3F82221D4F82411FC
:10242800C3F82411B4F82821A3F8282194F82A2104
:1024380083F82A21C3F82C7194F8302183F83021CD
:1024480094F8312183F831212F4AC3F82C21C3F89D
:102458003461C3F83861C3F83C61D4F83421C3F857
:102468003421C4F83461D3F83821D4F83811C3F8CA
:102478003811C4F83821D3F83C21D4F83C11C3F8FA
:102488003C11C4F83C2104F5A07403F5A073A645DB
:102498007FF402AF039B03F5A073E41A24F03F0412
:1024A80004F52074019B1C44D8F80050D8F8046047
:1024B800B54215D0144F07E0002302930193DEE5DF
:1024C80005F5A075B5420BD0C5F82C71D5F83401C7
:1024D8000028F5D011F0C5FDF2E7019B03F5A074C3
:1024E800D8F8000008B111F0BCFD019AC8F8002026
:1024F800C8F80440029B03EB830302EB8313C8F87C
:10250800083005B0BDE8F08F546C2100F8B50546D9
:102518000C4643688268934200F0FE80002B00F06E
:10252800F6800A781A707E4E5E600A7A1A724A7AC3
:102538005A727C4A5A604A895A81DE600A7C1A7447
:102548004A7C5A74784A5A610A7E1A7603F11C0743
:1025580001F11C0207CA87E8070003F1280704F104
:10256800280207CA87E8070003F1340704F1340298
:1025780007CA87E8070003F1400704F1400207CAC9
:1025880087E8070003F14C0704F14C0207CA87E803
:10259800070003F1580704F1580207CA87E8070043
:1025A80094F8642083F86420A26E9A66E26EDA6674
:1025B800226F1A6703F1740704F1740207CA87E8E7
:1025C800070003F1800704F1800207CA87E80700C3
:1025D80003F18C0704F18C0207CA87E80700B4F8F6
:1025E8009820A3F8982003F19C0704F19C0207CADD
:1025F80087E8070003F1A80704F1A80207CA87E8DB
:10260800070003F1B40704F1B40207CA87E807001A
:1026180003F1C00704F1C00207CA87E8070003F105
:10262800CC0704F1CC0207CA87E8070003F1D807F2
:1026380004F1D80207CA87E8070003F1E40704F1A8
:10264800E40207CA87E8070094F8F02083F8F0202E
:1026580003F1F40704F1F40207CA87E8070003F559
:10266800807704F5807207CA87E8070003F5867744
:1026780004F5867207CA87E807002C4ADA60143224
:102688005A6104F58C7292E80300C3F81801A3F8A4
:102698001C11D4F81E11C3F81E11B4F82221A3F896
:1026A800222104F5927292E80300C3F82401A3F8EA
:1026B800281194F82A2183F82A21C3F82C6194F868
:1026C800302183F8302194F8312183F83121184AD8
:1026D800C3F82C210022C3F83421C3F83821C3F8E9
:1026E8003C21D4F83411C3F83411C4F83421D3F898
:1026F8003821D4F83811C3F83811C4F83821D3F880
:102708003C21D4F83C11C3F83C11C4F83C216B6857
:1027180003F5A0736B60F8BDFFF77CFCF8BD00BF44
:10272800306D21001C6C2100406D2100906B210050
:10273800546C210070B40C1AA3112F4C04FB03F441
:10274800A410002C39DD0646137805789D422CD05C
:1027580090F840519D421DD090F880529D421CD067
:1027680090F8C0539D421BD006F5A060013C24D0D0
:1027780096F800559D4218D090F840519D4212D0CD
:1027880090F880529D4212D090F8C0539D4211D0CB
:102798000646E9E700F5A07007E000F5207004E0C0
:1027A80000F5707001E006F5C86070BC704706F56A
:1027B800F060FAE706F50C60F7E70B1A9C110E4B70
:1027C80003FB04F3022B0AD0032B02D0012B10D1F8
:1027D8000BE0047813789C42E7D000F5A0700478E9
:1027E80013789C42E1D000F5A070047813789C42DD
:1027F800DBD00846D9E700BFCDCCCCCC2DE9F047DB
:10280800D6B004468A46DDF87891032A00F215828C
:10281800DFE812F0040025006401B30184688DF834
:102828000010AA4B0193AA4B039305A808F054FA89
:10283800A84B039314330593A74B4B9300234D9355
:102848004E934F9369462046FFF760FEA24B4B9389
:102858004D98002800F0F18111F003FCEDE1836848
:102868001D685E688DF80010984B0193984B039390
:1028780005A808F031FA974B039314330593964F44
:102888004B9700234D934E934F936A463146284603
:10289800FFF750FF06464B974D9808B111F0E1FB42
:1028A800A3685B68B34200F0C8810023337286F8DE
:1028B80009A0738199F80080B8F1000F00F0018138
:1028C80008EB480E4FEACE04204611F0FAFB844686
:1028D80000EB040E00235093519352935393549357
:1028E800559300F1180750AC0FCC47F8180C47F86F
:1028F800141C47F8102C47F80C3C206847F8080CC3
:10290800A288A37927F8042C07F8023C1837B8F1F5
:102918000108E8D1022386F8303186F831A1D6F8CB
:102928003401C6F834C1C6F838E1C6F83CE108B14C
:1029380011F097FB99F80140003418BF0124644B4B
:10294800009301238DF804308DF805A002A808F043
:10295800C3F98DF81E419DF8043033749DF8053095
:1029680073749DF80C30337606F11C0304AA07CA69
:1029780083E8070006F1280307AA07CA83E80700C7
:1029880006F134030AAA07CA83E8070006F14003E0
:102998000DAA07CA83E8070006F14C0310AA07CA64
:1029A80083E8070006F1580313AA07CA83E807005B
:1029B8009DF8583086F86430179BB366189BF36609
:1029C800199B336706F174031AAA07CA83E807003C
:1029D80006F180031DAA07CA83E8070006F18C03E5
:1029E80020AA07CA83E80700BDF88C30A6F89830FB
:1029F80006F19C0324AA07CA83E8070006F1A80386
:102A080027AA07CA83E8070006F1B4032AAA07CA57
:102A180083E8070006F1C0032DAA07CA83E8070068
:102A280006F1CC0330AA07CA83E8070006F1D803E9
:102A380033AA07CA83E8070006F1E40336AA07CADF
:102A480083E807009DF8E43086F8F03006F1F403D7
:102A58003AAA07CA83E8070006F580733DAA07CAA1
:102A680083E8070006F5867340AA07CA83E80700CB
:102A7800BDF80C31A6F81831BDF80E31A6F81A3198
:102A8800BDF81031A6F81C31BDF81231A6F81E3178
:102A9800BDF81431A6F82031BDF81631A6F8223158
:102AA800BDF81831A6F82431BDF81A31A6F8263138
:102AB800BDF81C31A6F828319DF81E3186F82A3158
:102AC800BBE04FF0000CE64624E700BF1C6C210079
:102AD800306D2100906B2100546C210083681D68C3
:102AE8005E688DF800105A4B01935A4B039305A862
:102AF80008F0F2F8584B039314330593574F4B974C
:102B080000234D934E934F936A4631462846FFF76C
:102B180011FE05464B974D9808B111F0A2FAA3682B
:102B28005B68AB4200F0898099F8003003EB4303FF
:102B3800DB0099F80110D5F83421D154D5F83421A7
:102B48001A4499F8030099F8021041EA00215180CB
:102B5800D5F834211A4499F8050099F8041041EA87
:102B680000219180D5F83421134499F8071099F879
:102B7800062042EA0122DA805FE083681D685E6809
:102B88008DF80010324B0193324B039305A808F0DF
:102B9800A3F8314B039314330593304F4B9700231D
:102BA8004D934E934F936A4631462846FFF7C2FD30
:102BB80005464B974D9808B111F053FAA3685B6826
:102BC800AB423AD099F8003003EB4303DB00D5F869
:102BD80034211A4499F8020099F8011041EA0021B9
:102BE8001181D5F834211A4499F8020099F8011096
:102BF80041EA00215181D5F834211A4499F804009A
:102C080099F8031041EA00219181D5F834211A443A
:102C180099F8060099F8051041EA00211182D5F8C3
:102C280034211A4499F80710003118BF0121517551
:102C3800D5F83421134401229A7556B0BDE8F087BF
:102C4800064B4B934D9808B111F00BFA11F088FC24
:102C58001C6C2100306D2100906B2100546C210008
:102C68002DE9F04FE1B0054690F800808DF84080DE
:102C780090F808B08DF848B090F809A08DF849A0F0
:102C8800724B1193B0F80A90ADF84A90037C069302
:102C98008DF85030437C07938DF85130037E0993AB
:102CA8008DF8583017AB00F11C0207CA83E80700FB
:102CB8001AAB05F1280207CA83E807001DAB05F126
:102CC800340207CA83E8070020AB05F1400207CAAF
:102CD80083E8070023AB05F14C0207CA83E8070025
:102CE80026AB05F1580207CA83E8070095F8643057
:102CF8000A938DF8A430AB6E0B932A93EB6E0C936A
:102D08002B932B6F0D932C932DAB05F1740207CAEF
:102D180083E8070030AB05F1800207CA83E80700A3
:102D280033AB05F18C0207CA83E80700B5F8983081
:102D38000E93ADF8D83037AB05F19C0207CA83E88B
:102D480007003AAB05F1A80207CA83E807003DABC4
:102D580005F1B40207CA83E8070040AB05F1C002D9
:102D680007CA83E8070043AB05F1CC0207CA83E82A
:102D7800070046AB05F1D80207CA83E8070049AB4C
:102D880005F1E40207CA83E8070095F8F0300F93CD
:102D98008DF830314DAB05F1F40207CA83E807001E
:102DA80050AB05F5807207CA83E8070053AB05F5F9
:102DB800867207CA83E80700254B139314331593CB
:102DC80005F58C7393E803005690ADF85C11D5F8BF
:102DD8001E21CDF85E21B5F82231ADF8623105F536
:102DE800927393E803005990ADF8681195F82A3169
:102DF80008938DF86A3195F8303101938DF8703168
:102E080095F8313102938DF87131124B5B93D5F8F7
:102E1800343103935D930023C5F83431D5F8382154
:102E280004925E92C5F83831D5F83C2105925F923C
:102E3800C5F83C31A5F5A0742378984580F2078140
:102E4800474605F59275002632E000BF1C6C21004C
:102E5800906B2100546C210094F82A3184F86A326E
:102E680094F8303184F8703294F8313184F8713242
:102E7800D4F87402D4F83431C4F87432C4F8346124
:102E8800D4F83831C4F87832C4F83861D4F83C3111
:102E9800C4F87C32C4F83C6108B111F0E2F8A4F53A
:102EA800A0721378A5F5A075BB4240F3CF801446F5
:102EB80084F84031237A84F84831637A84F84931B8
:102EC8006389A4F84A31237C84F85031637C84F800
:102ED8005131237E84F8583104F5AE7304F11C0295
:102EE80007CA83E8070004F5B47304F1280207CA87
:102EF80083E8070004F5BA7304F1340207CA83E8CB
:102F0800070004F5C07304F1400207CA83E807000C
:102F180004F5C67304F14C0207CA83E8070004F5F8
:102F2800CC7304F1580207CA83E8070094F86430A8
:102F380084F8A431A36EC4F8A831E36EC4F8AC31A8
:102F4800236FC4F8B03104F5DA7304F1740207CAC8
:102F580083E8070004F5E07304F1800207CA83E8F8
:102F6800070004F5E67304F18C0207CA83E807003A
:102F7800B4F89830A4F8D83104F5EE7304F19C0243
:102F880007CA83E8070004F5F47304F1A80207CA26
:102F980083E8070004F5FA7304F1B40207CA83E86A
:102FA800070004F5007304F1C00207CA83E80700AC
:102FB80004F5037304F1CC0207CA83E8070004F59B
:102FC800067304F1D80207CA83E8070004F50973F9
:102FD80004F1E40207CA83E8070094F8F03084F8A3
:102FE800303204F50D7304F1F40207CA83E80700D0
:102FF80004F5107304F5807207CA83E8070004F526
:10300800137304F5867207CA83E8070004F58B7208
:1030180004F25E2004F5167332F9021F23F8021B2E
:103028009842F9D104F58E72284632F9021F23F826
:10303800021B8342F9D104F5917204F26A2032F935
:10304800021F23F8021B9842F9D105E7254685F8A7
:10305800008085F808B085F809A0A5F80A909DF8C1
:1030680018302B749DF81C306B749DF824302B7627
:1030780005F11C0317AA07CA83E8070005F128030E
:103088001AAA07CA83E8070005F134031DAA07CA6C
:1030980083E8070005F1400320AA07CA83E8070070
:1030A80005F14C0323AA07CA83E8070005F1580372
:1030B80026AA07CA83E807009DF8283085F86430F7
:1030C8000B9BAB660C9BEB660D9B2B6705F17403A2
:1030D8002DAA07CA83E8070005F1800330AA07CAAA
:1030E80083E8070005F18C0333AA07CA83E80700C1
:1030F800BDF83830A5F8983005F19C0337AA07CAFF
:1031080083E8070005F1A8033AAA07CA83E807007D
:1031180005F1B4033DAA07CA83E8070005F1C00317
:1031280040AA07CA83E8070005F1CC0343AA07CAE7
:1031380083E8070005F1D80346AA07CA83E8070011
:1031480005F1E40349AA07CA83E807009DF83C3063
:1031580085F8F03005F1F4034DAA07CA83E80700A3
:1031680005F5807350AA07CA83E8070005F586733A
:1031780053AA07CA83E80700BDF85831A5F81831E3
:10318800BDF85A31A5F81A31BDF85C31A5F81C31E3
:10319800BDF85E31A5F81E31BDF86031A5F82031C3
:1031A800BDF86231A5F82231BDF86431A5F82431A3
:1031B800BDF86631A5F82631BDF86831A5F8283183
:1031C8009DF8203085F82A319DF8043085F8303193
:1031D8009DF8083085F83131D5F83401039BC5F8DE
:1031E800343100235D93049AC5F838215E93059A1B
:1031F800C5F83C215F9308B110F033FF61B0BDE81A
:10320800F08F00BF2DE9F04FE5B00091814200F04A
:10321800FB82834600F5A070884200F0F582824662
:103228007F4B14331393ECE194F82A3184F86A3213
:1032380094F8303184F8703294F8313184F871326E
:10324800D4F87402D4F83431C4F87432C4F8346150
:10325800D4F83831C4F87832C4F83861D4F83C313D
:10326800C4F87C32C4F83C6108B110F0FAFEA8F545
:10327800A078A7F5A0772346013D00F0D380A3F5F9
:10328800A074227884F84021227A84F84821627A4E
:1032980084F849216289A4F84A21227C84F85021C3
:1032A800627C84F85121227E84F8582103F11C0E97
:1032B800A3F5927207CA8EE8070003F1280EA3F55A
:1032C8008C7207CA8EE8070003F1340EA3F58672E4
:1032D80007CA8EE8070003F1400EA3F5807207CAFB
:1032E8008EE8070003F14C0EA3F1F40207CA8EE83A
:1032F800070003F1580EA3F1E80207CA8EE8070099
:1033080094F8642084F8A421A26EC4F8A821E26E7F
:10331800C4F8AC21226FC4F8B02103F1740EA3F1F4
:10332800CC0207CA8EE8070003F1800EA3F1C002A1
:1033380007CA8EE8070003F18C0EA3F1B40207CA8E
:103348008EE80700B4F89820A4F8D82103F19C0E61
:10335800A3F1A40207CA8EE8070003F1A80EA3F19F
:10336800980207CA8EE8070003F1B40EA3F18C0295
:1033780007CA8EE8070003F1C00EA3F1800207CA4E
:103388008EE8070003F1CC0EA3F1740207CA8EE899
:10339800070003F1D80EA3F1680207CA8EE80700F8
:1033A80003F1E40EA3F15C0207CA8EE8070094F863
:1033B800F02084F8302203F1F40EA3F14C0207CA7E
:1033C8008EE8070003F5807EA3F1400207CA8EE865
:1033D800070003F5867EA3F1340207CA8EE80700CA
:1033E800A3F12A01BE4603F58C7231F9020F22F8C7
:1033F800020B7245F9D1A3F12401C64631F9020F37
:1034080022F8020B7245F9D1A3F11E0103F5957359
:1034180031F9020F22F8020B9A42F9D104E700BFF2
:10342800906B21008BF800909DF804308BF80830E1
:103438009DF808308BF80930BDF80C30ABF80A302D
:103448009DF824308BF810309DF828308BF8113017
:103458009DF830308BF818300BF11C031BAA07CAF3
:1034680083E807000BF128031EAA07CA83E80700B0
:103478000BF1340321AA07CA83E807000BF14003C4
:1034880024AA07CA83E807000BF14C0327AA07CA36
:1034980083E807000BF158032AAA07CA83E8070044
:1034A8009DF834308BF864300E9BCBF868300F9B56
:1034B800CBF86C30109BCBF870300BF1740331AA49
:1034C80007CA83E807000BF1800334AA07CA83E818
:1034D80007000BF18C0337AA07CA83E80700BDF879
:1034E8004430ABF898300BF19C033BAA07CA83E839
:1034F80007000BF1A8033EAA07CA83E807000BF1EF
:10350800B40341AA07CA83E807000BF1C00344AA21
:1035180007CA83E807000BF1CC0347AA07CA83E868
:1035280007000BF1D8034AAA07CA83E807000BF182
:10353800E4034DAA07CA83E807009DF848308BF8D2
:10354800F0300BF1F40351AA07CA83E807000BF522
:10355800807354AA07CA83E807000BF5867357AA35
:1035680007CA83E80700BDF86831ABF81831BDF821
:103578006A31ABF81A31BDF86C31ABF81C31BDF8C3
:103588006E31ABF81E31BDF87031ABF82031BDF8A3
:103598007231ABF82231BDF87431ABF82431BDF883
:1035A8007631ABF82631BDF87831ABF828319DF883
:1035B8002C308BF82A319DF810308BF830319DF87B
:1035C80014308BF83131DBF83401069BCBF83431F9
:1035D80000236193079ACBF838216293089ACBF8B5
:1035E8003C21639338B110F03CFD04E04FF000013A
:1035F8005046FFF735FB0AF5A07A009B534500F0CB
:10360800038153469AF800909BF800209145EDDA23
:103618008DF850909AF8082001928DF858209AF861
:10362800092002928DF85920794A1592BAF80A2091
:103638000392ADF85A209AF8102009928DF860206C
:103648009AF811200A928DF861209AF818200C92A5
:103658008DF868201BAC0AF11C0207CA84E8070031
:103668001EAC0AF1280207CA84E8070021AC0AF157
:10367800340207CA84E8070024AC0AF1400207CAEA
:1036880084E8070027AC0AF14C0207CA84E807005F
:103698002AAC0AF1580207CA84E807009AF864209D
:1036A8000D928DF8B420DAF868200E922E92DAF88E
:1036B8006C200F922F92DAF870201092309231AC71
:1036C8000AF1740207CA84E8070034AC0AF18002E0
:1036D80007CA84E8070037AC0AF18C0207CA84E8F5
:1036E8000700BAF898201192ADF8E8203BAC0AF12F
:1036F8009C0207CA84E807003EAC0AF1A80207CA80
:1037080084E8070041AC0AF1B40207CA84E807005C
:1037180044AC0AF1C00207CA84E8070047AC0AF1C2
:10372800CC0207CA84E807004AAC0AF1D80207CAE3
:1037380084E807004DAC0AF1E40207CA84E80700F0
:103748009AF8F02012928DF8402151AC0AF1F40257
:1037580007CA84E8070054AC0AF5807207CA84E8EF
:10376800070057AC0AF5867207CA84E80700294A99
:103778001792139A1992DAF818015A90BAF81C217C
:10378800ADF86C21DAF81E11CDF86E11BAF82221C5
:10379800ADF87221DAF824015D90BAF82821ADF865
:1037A80078219AF82A210B928DF87A219AF83021FB
:1037B80004928DF880219AF8312105928DF88121A3
:1037C800154A5F92DAF83421069261920022CAF80B
:1037D8003421DAF8381107916291CAF83821DAF8F9
:1037E8003C1108916391CAF83C21AAEB0B05AA1178
:1037F8000A4D05FB02F5002D7FF714AE0AF5927805
:103808000AF58F7700263AE565B0BDE8F08F00BF6E
:103818001C6C2100906B2100546C2100CDCCCCCCC9
:103828002DE9F04FEFB003460C46027800928DF870
:103838007820027A01928DF88020427A02928DF8DF
:103848008120C14A1F9242890392ADF88220027CEE
:1038580009928DF88820427C0A928DF88920027E90
:103868000C928DF8902025AD00F11C0B9BE8070009
:1038780085E8070028AD03F1280A9AE8070085E8DB
:1038880007002BAD03F13402164607CA85E8070086
:103898002EAD03F14002139207CA85E8070031AD47
:1038A80003F14C02149207CA85E8070034AD03F10E
:1038B8005802159207CA85E8070093F864200D920C
:1038C8008DF8DC209A6E0E923892DA6E0F92399249
:1038D8001A6F10923A923BAD03F17402169207CA1E
:1038E80085E807003EAD03F18001179107C985E817
:1038F800070041AD03F18C01189107C985E807005D
:10390800B3F898501195ADF8105145AD03F19C01ED
:10391800199107C985E8070048AD03F1A80999E896
:10392800070085E807004BAD03F1B40ECDF868E059
:103938009EE8070085E807004EAD03F1C00ECDF8FC
:103948006CE09EE8070085E8070051AD03F1CC0E56
:10395800CDF870E09EE8070085E8070054AD03F154
:10396800D80898E8070085E8070057AD03F1E40C8C
:103978009CE8070085E8070093F8F05012958DF849
:1039880068515BAD03F1F40E9EE8070085E8070077
:103998005EAD03F5807797E8070085E8070061AD1D
:1039A80003F586721D9207CA85E80700674A2192C7
:1039B8001432239203F58C7292E803006490ADF8F8
:1039C800941103F58F752A68CDF89621AA88ADF869
:1039D8009A2103F5927292E803006790ADF8A0115E
:1039E80093F82A110B918DF8A21193F830110491D4
:1039F8008DF8A81193F8311105918DF8A911544A41
:103A08006992D3F8341106916B910022C3F83421DE
:103A1800D3F8381107916C91C3F83821D3F83C11C9
:103A280008916D91C3F83C2122781A70227A1A7293
:103A3800627A5A7262895A81227C1A74627C5A7438
:103A4800227E1A7604F11C0207CA8BE8070004F1EB
:103A5800280207CA8AE8070004F1340207CA86E880
:103A6800070004F1400207CA139E86E8070004F124
:103A78004C0207CA149E86E8070004F1580207CAD8
:103A8800159E86E8070094F8642083F86420A26EE7
:103A98009A66E26EDA66226F1A6704F1740207CA40
:103AA800169E86E8070004F1800207CA179E86E87A
:103AB800070004F18C0207CA189E86E80700B4F8CC
:103AC8009820A3F8982004F19C0207CA199E86E85A
:103AD800070004F1A80207CA89E8070004F1B40244
:103AE80007CA1A9E86E8070004F1C00207CA1B9E8F
:103AF80086E8070004F1CC0207CA1C9E86E8070086
:103B080004F1D80207CA88E8070004F1E40207CAEA
:103B18008CE8070094F8F02083F8F02004F1F40210
:103B280007CA8EE8070004F5807207CA87E807000D
:103B380004F5867207CA1D9E86E8070003F58C7295
:103B480004F58B7106E000BF1C6C2100906B21000E
:103B5800546C210031F9020F22F8020B9542F9D179
:103B680003F58F7204F58E7103F5927531F9020F22
:103B780022F8020B9542F9D103F5927204F591717E
:103B880003F5957531F9020F22F8020B9542F9D128
:103B980094F82A2183F82A2194F8302183F83021D7
:103BA80094F8312183F83121D3F834010022C3F885
:103BB8003421C3F83821C3F83C21D4F83411C3F8B0
:103BC8003411C4F83421D3F83821D4F83811C3F8A3
:103BD8003811C4F83821D3F83C21D4F83C11C3F883
:103BE8003C11C4F83C2108B110F03BFA9DF80030B4
:103BF80023709DF8043023729DF808306372BDF875
:103C08000C3063819DF8243023749DF82830637448
:103C18009DF83030237604F11C0325AA07CA83E8EF
:103C2800070004F1280328AA07CA83E8070004F15B
:103C380034032BAA07CA83E8070004F140032EAA1D
:103C480007CA83E8070004F14C0331AA07CA83E8CE
:103C5800070004F1580334AA07CA83E807009DF84F
:103C6800343084F864300E9BA3660F9BE366109B88
:103C7800236704F174033BAA07CA83E8070004F129
:103C880080033EAA07CA83E8070004F18C0341AA0F
:103C980007CA83E80700BDF84430A4F8983004F157
:103CA8009C0345AA07CA83E8070004F1A80348AAA9
:103CB80007CA83E8070004F1B4034BAA07CA83E8DC
:103CC800070004F1C0034EAA07CA83E8070004F1FD
:103CD800CC0351AA07CA83E8070004F1D80354AA01
:103CE80007CA83E8070004F1E40357AA07CA83E870
:103CF80007009DF8483084F8F03004F1F4035BAA1B
:103D080007CA83E8070004F580735EAA07CA83E838
:103D1800070004F5867361AA07CA83E80700BDF89F
:103D28009031A4F81831BDF89231A4F81A31BDF8D1
:103D38009431A4F81C31BDF89631A4F81E31BDF8B1
:103D48009831A4F82031BDF89A31A4F82231BDF891
:103D58009C31A4F82431BDF89E31A4F82631BDF871
:103D6800A031A4F828319DF82C3084F82A319DF828
:103D7800103084F830319DF8143084F83131D4F89B
:103D88003401069BC4F8343100236B93079AC4F8B6
:103D980038216C93089AC4F83C216D9308B110F04F
:103DA80060F96FB0BDE8F08F2DE9F0478246914683
:103DB8001E4680464D1E48BF01356D100027FFE0A6
:103DC80001EB8101890108EB010308F80120227A3F
:103DD8001A72627A5A7262895A81227C1A74627CD7
:103DE8005A74227E1A7603F11C0E04F11C0207CACB
:103DF8008EE8070003F1280E04F1280207CA8EE8AE
:103E0800070003F1340E04F1340207CA8EE80700F4
:103E180003F1400E04F1400207CA8EE8070003F1DF
:103E28004C0E04F14C0207CA8EE8070003F1580E45
:103E380004F1580207CA8EE8070094F8642083F852
:103E48006420A26E9A66E26EDA66226F1A6703F140
:103E5800740E04F1740207CA8EE8070003F1800E9D
:103E680004F1800207CA8EE8070003F18C0E04F102
:103E78008C0207CA8EE80700B4F89820A3F89820A7
:103E880003F19C0E04F19C0207CA8EE8070003F1B7
:103E9800A80E04F1A80207CA8EE8070003F1B40EC1
:103EA80004F1B40207CA8EE8070003F1C00E04F15A
:103EB800C00207CA8EE8070003F1CC0E04F1CC0259
:103EC80007CA8EE8070003F1D80E04F1D80207CA22
:103ED8008EE8070003F1E40E04F1E40207CA8EE855
:103EE800070094F8F02083F8F02003F1F40E04F1B1
:103EF800F40207CA8EE8070003F5807E04F5807295
:103F080007CA8EE8070003F5867E04F5867207CA9D
:103F18008EE8070003F58C7204F58B7103F58F7E2C
:103F280031F9020F22F8020B9645F9D103F58F7289
:103F380004F58E7103F5927E31F9020F22F8020B17
:103F48009645F9D103F5927204F5917103F5957EC2
:103F580031F9020F22F8020B7245F9D194F82A219F
:103F680083F82A2194F8302183F8302194F83121FC
:103F780083F83121D3F83401C3F83471C3F83871A8
:103F8800C3F83C71D4F83421C3F83421C4F834712F
:103F9800D3F83821D4F83811C3F83811C4F83821C7
:103FA800D3F83C21D4F83C11C3F83C11C4F83C21A7
:103FB80008B110F056F86B1E48BF013329465D1052
:103FC80049450ADD05EB85039B0108EB030418F856
:103FD8000320337893423FF7F3AE01EB8101890167
:103FE8000AEB010332780AF80120327A1A72727ADF
:103FF8005A7272895A81327C1A74727C5A74327E6F
:104008001A7603F11C0406F11C0207CA84E80700AB
:1040180003F1280406F1280207CA84E8070003F11F
:10402800340406F1340207CA84E8070003F14004A7
:1040380006F1400207CA84E8070003F14C0406F1C0
:104048004C0207CA84E8070003F1580406F1580235
:1040580007CA84E8070096F8642083F86420B26EE3
:104068009A66F26EDA66326F1A6703F1740406F123
:10407800740207CA84E8070003F1800406F180028D
:1040880007CA84E8070003F18C0406F18C0207CA0A
:1040980084E80700B6F89820A3F8982003F19C0458
:1040A80006F19C0207CA84E8070003F1A80406F198
:1040B800A80207CA84E8070003F1B40406F1B402B1
:1040C80007CA84E8070003F1C00406F1C00207CA62
:1040D80084E8070003F1CC0406F1CC0207CA84E89F
:1040E800070003F1D80406F1D80207CA84E80700DC
:1040F80003F1E40406F1E40207CA84E8070096F82D
:10410800F02083F8F02003F1F40406F1F40207CA62
:1041180084E8070003F5807406F5807207CA84E80E
:10412800070003F5867406F5867207CA84E8070057
:1041380003F58C7206F58B7103F58F7431F9020F54
:1041480022F8020BA242F9D103F58F7206F58E719F
:1041580003F5927431F9020F22F8020B9442F9D157
:1041680003F5927206F5917103F5957431F9020F12
:1041780022F8020B9442F9D196F82A2183F82A21D1
:1041880096F8302183F8302196F8312183F83121CF
:10419800D3F834010022C3F83421C3F83821C3F816
:1041A8003C21D6F83411C3F83411C6F83421D3F8B9
:1041B8003821D6F83811C3F83811C6F83821D3F8A1
:1041C8003C21D6F83C11C3F83C11C6F83C2108B193
:1041D8000FF047FFBDE8F0872DE9F04FD5B08346D3
:1041E800039192461F460646B2F1010948BF09F1FC
:1041F80001094FEA6909039C4FF000082DE09EF879
:104208002A2183F82A219EF8302183F830219EF84C
:10421800312183F83121D3F83401C3F83481C3F84C
:104228003881C3F83C81DEF83421C3F83421CEF854
:104238003481D3F83821DEF83811C3F83811CEF8B4
:104248003821D3F83C21DEF83C11C3F83C11CEF8F4
:104258003C2108B10FF005FF2C464C4580F2EA805E
:10426800631C5D006A1E02EB82018901715C05EB2B
:10427800C3039B01F35C9942C8BF154604EB840451
:10428800A401331905EB8502920106EB020EB25C1C
:1042980032559EF808201A729EF809205A72BEF804
:1042A8000A205A819EF810201A749EF811205A7418
:1042B8009EF818201A7603F11C040EF11C0207CA96
:1042C80084E8070003F128040EF1280207CA84E8ED
:1042D800070003F134040EF1340207CA84E807002A
:1042E80003F140040EF1400207CA84E8070003F115
:1042F8004C040EF14C0207CA84E8070003F1580485
:104308000EF1580207CA84E807009EF8642083F873
:104318006420DEF868209A66DEF86C20DA66DEF83B
:1043280070201A6703F174040EF1740207CA84E856
:10433800070003F180040EF1800207CA84E8070031
:1043480003F18C040EF18C0207CA84E80700BEF85A
:104358009820A3F8982003F19C040EF19C0207CA48
:1043680084E8070003F1A8040EF1A80207CA84E84C
:10437800070003F1B4040EF1B40207CA84E8070089
:1043880003F1C0040EF1C00207CA84E8070003F174
:10439800CC040EF1CC0207CA84E8070003F1D80464
:1043A8000EF1D80207CA84E8070003F1E4040EF10D
:1043B800E40207CA84E807009EF8F02083F8F0209A
:1043C80003F1F4040EF1F40207CA84E8070003F5C8
:1043D80080740EF5807207CA84E8070003F58674B6
:1043E8000EF5867207CA84E8070003F58C720EF58D
:1043F8008B7103F58F7431F9020F22F8020BA24278
:10440800F9D103F58F720EF58E7103F5927431F9B7
:10441800020F22F8020BA242F9D103F592720EF5AF
:10442800917103F5957431F9020F22F8020BA2423B
:10443800F9D1E4E61AF0010F08D1BAF1020A48BF2F
:104448000AF1010AB4EB6A0F00F0EA803B788DF8B4
:1044580010303B7A8DF818307B7A8DF819306D4B17
:1044680005937B89ADF81A303B7C8DF820307B7C36
:104478008DF821303B7E8DF828300BAB07F11C02FC
:1044880007CA83E807000EAB07F1280207CA83E8CA
:10449800070011AB07F1340207CA83E8070014AB21
:1044A80007F1400207CA83E8070017AB07F14C027F
:1044B80007CA83E807001AAB07F1580207CA83E85E
:1044C800070097F864308DF87430BB6E1E93FB6E4E
:1044D8001F933B6F209321AB07F1740207CA83E84F
:1044E800070024AB07F1800207CA83E8070027AB5F
:1044F80007F18C0207CA83E80700B7F89830ADF8CF
:10450800A8302BAB07F19C0207CA83E807002EAB43
:1045180007F1A80207CA83E8070031AB07F1B40224
:1045280007CA83E8070034AB07F1C00207CA83E86B
:10453800070037AB07F1CC0207CA83E807003AAB9C
:1045480007F1D80207CA83E807003DAB07F1E40288
:1045580007CA83E8070097F8F0308DF8003141ABBF
:1045680007F1F40207CA83E8070044AB07F5807235
:1045780007CA83E8070047AB07F5867207CA83E8CE
:104588000700254B07931433099307F58C7393E8B9
:1045980003004A90ADF82C11D7F81E21CDF82E2132
:1045A800B7F82231ADF8323107F5927393E803007A
:1045B8004D90ADF8381197F82A318DF83A3197F8BF
:1045C80030318DF8403197F831318DF84131134D44
:1045D8004F95D7F8343151930023C7F83431D7F8C1
:1045E80038215292C7F83831D7F83C215392C7F88E
:1045F8003C318DF8003004AB039A21465846FFF74A
:10460800D3FB4F95519808B10FF02BFD55B0BDE87D
:10461800F08F00BF1C6C2100906B2100546C2100AE
:1046280004EB840292010BEB02036400013404EBF7
:10463800840189010BEB01051BF801100BF802102E
:104648002A7A1A726A7A5A726A895A812A7C1A7480
:104658006A7C5A742A7E1A7603F11C0605F11C023C
:1046680007CA86E8070003F1280605F1280207CAE9
:1046780086E8070003F1340605F1340207CA86E824
:10468800070003F1400605F1400207CA86E8070063
:1046980003F14C0605F14C0207CA86E8070003F14E
:1046A800580605F1580207CA86E8070095F86420FD
:1046B80083F86420AA6E9A66EA6EDA662A6F1A6729
:1046C80003F1740605F1740207CA86E8070003F1CE
:1046D800800605F1800207CA86E8070003F18C0608
:1046E80005F18C0207CA86E80700B5F89820A3F8F8
:1046F800982003F19C0605F19C0207CA86E807008A
:1047080003F1A80605F1A80207CA86E8070003F125
:10471800B40605F1B40207CA86E8070003F1C0062B
:1047280005F1C00207CA86E8070003F1CC0605F1C7
:10473800CC0207CA86E8070003F1D80605F1D802BB
:1047480007CA86E8070003F1E40605F1E40207CA90
:1047580086E8070095F8F02083F8F02003F1F406C6
:1047680005F1F40207CA86E8070003F5807605F527
:10477800807207CA86E8070003F5867605F5867213
:1047880007CA86E8070003F58C7205F58B7103F5F7
:104798008F7631F9020F22F8020BB242F9D103F5F4
:1047A8008F7205F58E7103F5927631F9020F22F8B2
:1047B800020B9642F9D103F5927205F5917103F552
:1047C800957631F9020F22F8020B9642F9D195F845
:1047D8002A2183F82A2195F8302183F8302195F889
:1047E800312183F83121D3F834010022C3F8342170
:1047F800C3F83821C3F83C21D5F83411C3F8341173
:10480800C5F83421D3F83821D5F83811C3F8381150
:10481800C5F83821D3F83C21D5F83C11C3F83C1130
:10482800C5F83C2100283FF411AE0FF01AFC0DE644
:104838002DE9F04FADF5377D1390081AB0F5207FBC
:10484800C0F2D4818011094901FB00F31493023BA3
:1048580048BF01335B10039303EB8303139A02EB06
:104868008319034B143315930CE000BFCDCCCCCC8B
:10487800906B2100A9F5A079039B002B00F0B6816D
:10488800013B039399F800B099F80830049399F81C
:1048980009200592B9F80A10069199F810000C90B1
:1048A80099F811400D9499F818500F9509F11C03C7
:1048B80093E807001DAE86E8070009F1280393E88E
:1048C800070020AE86E8070009F1340393E80700E3
:1048D80023AE86E8070009F1400393E8070026AEF7
:1048E80086E8070009F14C0393E8070029AE86E83B
:1048F800070009F1580393E807002CAE86E8070083
:1049080099F86460109609F1740393E8070033AFCF
:1049180087E8070009F1800393E8070036AF87E8C6
:10492800070009F18C0393E8070039AF87E807000F
:10493800B9F89870119709F19C0393E807000DF1F5
:10494800F40E8EE8070009F1A80393E807000DF5B7
:10495800807E8EE8070009F1B40393E807000DF59F
:10496800867E8EE807000DF58C7C09F1C00393E87C
:1049780007008CE807000DF5927E09F1CC0393E857
:1049880007008EE807004CAF09F1D80393E8070049
:1049980087E807004FAE09F1E40393E8070086E8CB
:1049A800070099F8F030129353AD09F1F40393E836
:1049B800070085E8070056AC09F5807393E80700FF
:1049C80084E8070059AB09F5867207CA83E807002F
:1049D8000DF5B87AD9F818015C90B9F81C21ADF832
:1049E8007421D9F81E11CDF87611B9F82221ADF845
:1049F8007A210DF5BE78D9F824015F90B9F82821FD
:104A0800ADF8802199F82A210E9299F83011079172
:104A180099F831010890D9F8342109920022C9F88F
:104A28003421D9F838110A91C9F83821D9F83C014C
:104A38000B90C9F83C218DF898B19DF810B08DF80D
:104A4800A0B19DF814B08DF8A1B16A4A6792BDF87B
:104A580018B0ADF8A2B19DF830B08DF8A8B19DF8A6
:104A680034B08DF8A9B19DF83CB08DF8B0B10DF512
:104A7800DA7B1DAA07CA8BE807000DF5E07B20AAA0
:104A880007CA8BE807000DF5E67B23AA07CA8BE85F
:104A980007000DF5EC7B26AA07CA8BE807000DF581
:104AA800F27B29AA07CA8BE807000DF5F87B2CAA28
:104AB80007CA8BE807009DF840B08DF8FCB1D9F81B
:104AC80068208092D9F86C208192D9F8702082925F
:104AD8000DF5037B33AA07CA8BE807000DF5067BA3
:104AE80036AA07CA8BE807000DF5097B39AA07CA59
:104AF8008BE80700BDF844B0ADF830B20DF50D7B7A
:104B08003DAA07CA8BE807000DF5107B40AA07CA23
:104B18008BE807000DF5137B43AA07CA8BE807004B
:104B28000DF5167B9CE807008BE807000DF5197C4E
:104B38009EE807008CE807000DF51C7E97E8070043
:104B48008EE807009FAF96E8070087E807009DF802
:104B580048608DF88862A3AE95E8070086E80700EC
:104B6800A6AD94E8070085E80700A9AC93E807001C
:104B780084E80700204B6993159B6B939AE8030020
:104B8800AC90ADF8B412DDF87631CDF8B632BDF898
:104B98007A31ADF8BA3298E80300AF90ADF8C01298
:104BA8009DF838308DF8C2329DF81C308DF8C83227
:104BB8009DF820308DF8C932104CB194099AB392FF
:104BC8000A99B4910B98B5904FF000038DF8003016
:104BD80066AB149A03991398FFF7FEFAB194B39849
:104BE80000283FF447AE0FF03CFA43E60DF5377D59
:104BF800BDE8F08F1C6C2100906B2100546C2100E3
:104C08002DE9F04FADF5437D044616911346127811
:104C180003921A7A04925A7A05925A8906921A7C51
:104C28000C925A7C0D921A7E0F9279AD03F11C0BEF
:104C38009BE8070085E807007CAD03F1280A9AE89D
:104C4800070085E807007FAD03F13402164607CA5E
:104C580085E8070082AD03F14002179207CA85E88C
:104C6800070085AD03F14C02189207CA85E80700D2
:104C780088AD03F15802199207CA85E8070093F82E
:104C8800642010929A6E1192DA6E12921A6F139231
:104C98008FAD03F174021A9207CA85E8070092AD36
:104CA80003F180011B9107C985E8070095AD03F161
:104CB8008C011C9107C985E80700B3F89850149532
:104CC80099AD03F19C011D9107C985E807009CADCA
:104CD80003F1A80ECDF878E09EE8070085E8070004
:104CE8009FAD03F1B40ECDF87CE09EE8070085E89F
:104CF8000700A2AD03F1C00ECDF880E09EE80700E2
:104D080085E80700A5AD03F1CC0999E8070085E817
:104D18000700A8AD03F1D80898E8070085E8070060
:104D2800ABAD03F1E40C9CE8070085E8070093F8B5
:104D3800F0501595AFAD03F1F40E9EE8070085E835
:104D48000700B2AD03F5807797E8070085E807000C
:104D5800B5AD03F58672219207CA85E8070003F509
:104D68008C7292E80300B890ADF8E41203F58F75E1
:104D78002A68CDF8E622AA88ADF8EA2203F59272ED
:104D880092E80300BB90ADF8F01293F82A110E9147
:104D980093F83011079193F831110891D3F8341131
:104DA80009910022C3F83421D3F838110A91C3F8C5
:104DB8003821D3F83C110B91C3F83C2122781A70A2
:104DC800227A1A72627A5A7262895A81227C1A7419
:104DD800627C5A74227E1A7604F11C0207CA8BE898
:104DE800070004F1280207CA8AE8070004F1340220
:104DF80007CA86E8070004F1400207CA179E86E83A
:104E0800070004F14C0207CA189E86E8070004F15F
:104E1800580207CA199E86E8070094F8642083F8A8
:104E28006420A26E9A66E26EDA66226F1A6704F14F
:104E3800740207CA1A9E86E8070004F1800207CAAE
:104E48001B9E86E8070004F18C0207CA1C9E86E8B0
:104E58000700B4F89820A3F8982004F19C0207CA28
:104E68001D9E86E8070004F1A80207CA1E9E86E870
:104E7800070004F1B40207CA1F9E86E8070004F180
:104E8800C00207CA209E86E8070004F1CC0207CAC0
:104E980089E8070004F1D80207CA88E8070004F186
:104EA800E40207CA8CE8070094F8F02083F8F020A1
:104EB80004F1F40207CA8EE8070004F5807207CAF5
:104EC80087E8070004F5867207CA219E86E807006E
:104ED80003F58C7204F58B7131F9020F22F8020B7D
:104EE800AA42F9D103F58F7204F58E7103F5927514
:104EF80031F9020F22F8020BAA42F9D103F5927296
:104F080004F5917103F5957531F9020F22F8020B3A
:104F1800AA42F9D194F82A2183F82A2194F8302159
:104F280083F8302194F8312183F83121D3F8340102
:104F38000022C3F83421C3F83821C3F83C21D4F83F
:104F48003411C3F83411C4F83421D3F83821D4F813
:104F58003811C3F83811C4F83821D3F83C21D4F8F3
:104F68003C11C3F83C11C4F83C2108B10FF079F8A2
:104F7800169B1D1BAD119DF80C308DF888309DF8DF
:104F880010308DF890309DF814308DF89130624BC8
:104F98002393BDF81830ADF892309DF830308DF875
:104FA80098309DF834308DF899309DF83C308DF864
:104FB800A03029AB79AA07CA83E807002CAB7CAAE2
:104FC80007CA83E807002FAB7FAA07CA83E8070050
:104FD80032AB82AA07CA83E8070035AB85AA07CA9D
:104FE80083E8070038AB88AA07CA83E807009DF85A
:104FF80040308DF8EC30119B3C93129B3D93139BF2
:105008003E933FAB8FAA07CA83E8070042AB92AA38
:1050180007CA83E8070045AB95AA07CA83E80700D3
:10502800BDF85030ADF8203149AB99AA07CA83E8DA
:1050380007004CAB9CAA07CA83E807004FAB9FAA9E
:1050480007CA83E8070052ABA2AA07CA83E8070089
:1050580055ABA5AA07CA83E8070058ABA8AA07CA90
:1050680083E807005BABABAA07CA83E807009DF893
:1050780054308DF878315FABAFAA07CA83E80700D0
:1050880062ABB2AA07CA83E8070065ABB5AA07CA2C
:1050980083E80700214B259314332793B8AA92E895
:1050A80003006890ADF8A411C2AB53F8222DCDF8D7
:1050B800A6219B88ADF8AA31BBAA92E803006B90A1
:1050C800ADF8B0119DF838308DF8B2319DF81C302C
:1050D8008DF8B8319DF820308DF8B931104E6D96A5
:1050E800099B6F930A9B70930B9B71934FF000037E
:1050F8008DF8003022AB0B4A02FB05F20021204656
:10510800FFF76AF86D966F9808B10EF0AAFF0DF5D3
:10511800437DBDE8F08F00BF1C6C2100906B21001F
:10512800546C2100CDCCCCCC2DE9F04F83B001904C
:10513800914688460B46091AB1F5AA5F24DB074653
:105148008246B9F1000F05D0DFF818B100F5A0725A
:10515800009266E04FF000024146019C2046FFF7AE
:1051680067FBA8EB0403B3F5207F0DDBA8F5A07857
:105178004FF00003424641463846FFF741FDA8EB91
:105188000703B3F5207FF1DA03B0BDE8F08F3846A6
:10519800FEF746FB0FE000993846FEF741FB0AE0B0
:1051A800A8F5A0700078824208DB8342B8BF214688
:1051B8003846FEF735FB009D444606E00099384620
:1051C800FEF72EFBF7E705F5A0752E4639782B7804
:1051D8008B42F8DBA4F5A0731A7891420EDAA4F595
:1051E80020731C46A3F5A07322789142F9DBA642EE
:1051F80006D221463046FEF713FBE4E71C46F6E7E5
:105208004FF000034A4641463046FFF78DFF2B46D4
:10521800A5EB0A05B5F5AA5FB6DBB046B9F1000FF4
:1052280098D009F1FF39A3EB0A039B110BFB03F399
:10523800002BB8BF01335B1003EB83039B01F91804
:10524800A8F5A07497F84021FB5C9A42A8DA207868
:1052580083429CDB82429EDA21463846FEF7E0FA1A
:10526800A9E700BFCDCCCCCC2DE9F04383B00646EE
:105278000079002100910B460F2201F09FFD01F0FB
:1052880097FD01210AF0C6FEC8200AF00DFBB3689D
:105298001F685D68AF422CD0EC1BA3112B4A02FBA0
:1052A80003F2B2FA82F2C2F11F024FF00003520079
:1052B80029463846FFF738FFB4F5AA5F13DB07F530
:1052C800A0544FF0000221463846FDF79BFFA54247
:1052D8000FD04FF000012046FDF7C2FC04F5A07482
:1052E800A542F6D105E04FF0000229463846FDF701
:1052F80089FFB3681A685B689B1A9B11134901FB05
:1053080003F303B300242546A04601278946125D0E
:105318003079CDF800804346394601F04FFD01F061
:1053280047FD39460AF076FEC8200AF0BDFA013575
:10533800B3681A6804F5A0745B689B1A9B1109FB93
:1053480003F39D42E3D303B0BDE8F083CDCCCCCCCE
:105358007047704770470000F0B589B005460023D4
:10536800069307930393049305938368C268D21A3C
:1053780092101646062AA8BF06269EB117467AB18D
:10538800043B03A8002153F8044FE48820F8024B9B
:1053980001318E4206D0B942F5D150480FF071FD67
:1053A8001146FAE7BDF80C208DF81820BDF80E302C
:1053B800C2F3012242EA83028DF81920BDF81020B9
:1053C800C3F3831343EA02138DF81A30C2F30512AC
:1053D8008DF81B20BDF812208DF81C20BDF8143064
:1053E800C2F3012242EA83028DF81D20BDF816207F
:1053F800C3F3831343EA02138DF81E30C2F3051278
:105408008DF81F20287906AB009308230F2200216E
:1054180001F0D4FC01F0CCFC00210AF0FBFDA868E7
:10542800EA68121A9210062A55D9961F062EA8BFA6
:1054380006269EB1183003AC0636571C072150F8D3
:10544800043BDB8824F8023BB14207D04B1CBB422B
:1054580001D01946F3E721480FF013FDBDF80C20E1
:105468008DF81820BDF80E30C2F3012242EA8302FB
:105478008DF81920BDF81020C3F3831343EA0213F3
:105488008DF81A30C2F305128DF81B20BDF81220D2
:105498008DF81C20BDF81430C2F3012242EA8302C1
:1054A8008DF81D20BDF81620C3F3831343EA0213B9
:1054B8008DF81E30C2F305128DF81F20287906AB2F
:1054C800009308230F22012101F078FC01F070FC01
:1054D80000210AF09FFD09B0F0BD00BF606D2100FA
:1054E800F0B4049B1F889E78DD78B3F9044099795D
:1054F80002EB4202D200836813441F81836813447D
:105508009E7483681344DD7483681344DC81836864
:105518001A441175F0BC7047F0B585B08268C3684D
:105528009B1ADB10124901FB03F38BB102AD05EBAB
:105538004307104E917D002914BF3146002154893C
:10554800C4F30B04214325F8021B1832BD42F1D1E4
:105558004279007902A900915B00002101F02EFC3C
:1055680001F026FC00210AF055FD05B0F0BD00BF92
:10557800ABAAAAAA0080FFFF30B403790B70836836
:105588004B7083681B0A8B704389CB70C37A0B718D
:105598008368A3B100220524036953F822304B71B4
:1055A8001D0A8D711D0CCD711B0E0B720434013256
:1055B800043183689342EFD8204630BC70470524F5
:1055C800FAE70000004870479871210000487047CA
:1055D8007471210000207047002070470048704710
:1055E800BC722100004870479872210003790B7043
:1055F800C3884B70C3881B0A8B700389CB700389DF
:105608001B0A0B7143894B7143891B0A8B71838970
:10561800CB7183891B0A0B72C3894B72C3891B0A1E
:105628008B72037CCB720C2070470B7803714B781C
:10563800C3808A7843EA0223C380CB7803810A793E
:1056480043EA022303814B7943818A7943EA02239F
:105658004381CB7983810A7A43EA022383814B7A97
:10566800C3818A7A43EA0223C381CB7A03740C206C
:105678007047000000487047847221000048704756
:10568800607221002DE9F04103790B7043794B706A
:1056980083688B7083681B0ACB7043890B71C37A4C
:1056A8004B718368A3B18846074600242646062521
:1056B800386A03591B6808EB0501204498470544DC
:1056C80001361434BB68B342F2D82846BDE8F081ED
:1056D8000625FAE7004870474C72210000487047D9
:1056E8002872210003790B70C3884B70C3881B0A8A
:1056F8008B70037ACB70B0F90A300B71C3F30723B0
:105708004B71037B8B71072070470B7803714B78C3
:10571800C3808A7843EA0223C380CB7803724A792C
:105728000B7943EA022343818B790373072070477F
:105738000048704728712100004870470471210013
:10574800F8B543680B7043681B0A4B70C3888B70AD
:10575800C379CB7083680B7183681B0A4B714389CB
:105768008B71C37ACB71C3680B72C3681B0A4B7207
:10577800C3898B72C37BCB72C3688BB10F46054656
:1057880000240C262301286AC2581268B919184443
:10579800904706440134EB68A342F3D83046F8BD7D
:1057A8000C26FBE7004870476071210000487047ED
:1057B8003C71210030B4034642680A704268120AFC
:1057C8004A70C2888A70C279CA70426852B3CC1CC7
:1057D8000022D868805C04F8010F501D01325D6812
:1057E8009542F6D80A181C690C541969090A5170AF
:1057F800598A9170D97CD1700430196981B11146E8
:1058080000229C6934F812400C719C6934F81240EB
:10581800240A4C710230013202311C699442F0D8DA
:1058280030BC70470420DDE7004870471072210043
:1058380000487047EC71210030B4024643680B7091
:1058480043681B0A4B70C3888B70C379CB7043685D
:105858002BB3CC1C0023D068C05C04F8010F581D82
:10586800013355689D42F6D813690B540B18146917
:10587800240A5C70548A9C70D47CDC70031D184622
:10588800146954B10B4400249069005D03F8010BBE
:10589800581A01341569A542F6D830BC704704205F
:1058A800E2E7000000487047D471210000487047C3
:1058B800B0712100406A7047004870479871210014
:1058C800004870477471210008B503690C30984787
:1058D80008BD40697047000000487047BC7221004D
:1058E8000048704798722100C06A704700487047A6
:1058F800D471210000487047B0712100C06A704718
:10590800004870471072210000487047EC71210070
:1059180038B543680269934200D038BD002BFCD0EB
:10592800C36819780C4B1D685A68521B9210914233
:105938000ED2002355F82110846934F813404C81A5
:10594800013341689942E8D9C168C95C9142F1D3F1
:1059580002480FF096FA00BF9C000020606D2100FD
:1059680038B543680269934200D038BD002BFCD09B
:10597800C3681978124B1C685A68121B921091421E
:1059880018D2002354F821508169C95C003118BF2E
:105998000121A975C168C95C91420ED254F8211041
:1059A8000D894D81013341689942DED9C168C95CCE
:1059B8009142E7D303480FF064FA02480FF061FA06
:1059C8009C000020606D210010B50446034B036065
:1059D800806808B10EF045FB204610BD2C6C2100F4
:1059E80010B50446006808B10EF03BFB204610BD18
:1059F80010B50446006808B10EF033FB204610BD10
:105A08005C4B1B7B002B00F0B4802DE9F04F83B07A
:105A1800584B19695B695B1A9B11574A02FB03F3E0
:105A28003BB14FF0000AD346DFF84881534E544F3C
:105A38002FE000229346594652480FF022FA0FF001
:105A480014FA224686E04FF00009C8F83C90D8F8CE
:105A58004C0003681B6808F11C02D8F848109847E6
:105A6800B9F1000F02D048460EF0FBFA0BF1010B1A
:105A780098F80C305B4579D9D8F81010D8F814305C
:105A88005B1A9B113C4A02FB03F20AF5A07A5A45BD
:105A9800D1D901EB0A0595F82A3188F8213011F897
:105AA8000A3088F82030D5F83831D5F834411C1B35
:105AB800E41006FB04F4C8F82440002CC3D0324B91
:105AC8009C42BCD804EB84039B00019318460EF05B
